{
  "contractName": "BackingERC20Token",
  "abi": [
    {
      "constant": false,
      "inputs": [],
      "name": "renounceOwnership",
      "outputs": [],
      "payable": false,
      "stateMutability": "nonpayable",
      "type": "function"
    },
    {
      "constant": true,
      "inputs": [],
      "name": "owner",
      "outputs": [
        {
          "name": "",
          "type": "address"
        }
      ],
      "payable": false,
      "stateMutability": "view",
      "type": "function"
    },
    {
      "constant": false,
      "inputs": [
        {
          "name": "_newOwner",
          "type": "address"
        }
      ],
      "name": "transferOwnership",
      "outputs": [],
      "payable": false,
      "stateMutability": "nonpayable",
      "type": "function"
    },
    {
      "anonymous": false,
      "inputs": [
        {
          "indexed": true,
          "name": "previousOwner",
          "type": "address"
        }
      ],
      "name": "OwnershipRenounced",
      "type": "event"
    },
    {
      "anonymous": false,
      "inputs": [
        {
          "indexed": true,
          "name": "previousOwner",
          "type": "address"
        },
        {
          "indexed": true,
          "name": "newOwner",
          "type": "address"
        }
      ],
      "name": "OwnershipTransferred",
      "type": "event"
    },
    {
      "constant": false,
      "inputs": [
        {
          "name": "_back",
          "type": "uint256"
        },
        {
          "name": "_address",
          "type": "address"
        },
        {
          "name": "_token",
          "type": "address"
        }
      ],
      "name": "createBack",
      "outputs": [],
      "payable": false,
      "stateMutability": "nonpayable",
      "type": "function"
    },
    {
      "constant": false,
      "inputs": [
        {
          "name": "_back",
          "type": "uint256"
        },
        {
          "name": "_address",
          "type": "address"
        },
        {
          "name": "_token",
          "type": "address"
        }
      ],
      "name": "removeBack",
      "outputs": [],
      "payable": false,
      "stateMutability": "nonpayable",
      "type": "function"
    },
    {
      "constant": true,
      "inputs": [
        {
          "name": "_backholder",
          "type": "address"
        },
        {
          "name": "_token",
          "type": "address"
        }
      ],
      "name": "backOf",
      "outputs": [
        {
          "name": "",
          "type": "uint256"
        }
      ],
      "payable": false,
      "stateMutability": "view",
      "type": "function"
    },
    {
      "constant": true,
      "inputs": [
        {
          "name": "_token",
          "type": "address"
        }
      ],
      "name": "totalBacks",
      "outputs": [
        {
          "name": "",
          "type": "uint256"
        }
      ],
      "payable": false,
      "stateMutability": "view",
      "type": "function"
    },
    {
      "constant": true,
      "inputs": [
        {
          "name": "_address",
          "type": "address"
        }
      ],
      "name": "isBackholder",
      "outputs": [
        {
          "name": "",
          "type": "bool"
        },
        {
          "name": "",
          "type": "uint256"
        }
      ],
      "payable": false,
      "stateMutability": "view",
      "type": "function"
    },
    {
      "constant": false,
      "inputs": [
        {
          "name": "_backholder",
          "type": "address"
        }
      ],
      "name": "addBackholder",
      "outputs": [],
      "payable": false,
      "stateMutability": "nonpayable",
      "type": "function"
    },
    {
      "constant": false,
      "inputs": [
        {
          "name": "_backholder",
          "type": "address"
        }
      ],
      "name": "removeBackholder",
      "outputs": [],
      "payable": false,
      "stateMutability": "nonpayable",
      "type": "function"
    },
    {
      "constant": true,
      "inputs": [
        {
          "name": "_backholder",
          "type": "address"
        }
      ],
      "name": "rewardOf",
      "outputs": [
        {
          "name": "",
          "type": "uint256"
        }
      ],
      "payable": false,
      "stateMutability": "view",
      "type": "function"
    },
    {
      "constant": true,
      "inputs": [],
      "name": "totalRewards",
      "outputs": [
        {
          "name": "",
          "type": "uint256"
        }
      ],
      "payable": false,
      "stateMutability": "view",
      "type": "function"
    },
    {
      "constant": true,
      "inputs": [
        {
          "name": "_backholder",
          "type": "address"
        },
        {
          "name": "_token",
          "type": "address"
        }
      ],
      "name": "calculateReward",
      "outputs": [
        {
          "name": "",
          "type": "uint256"
        }
      ],
      "payable": false,
      "stateMutability": "view",
      "type": "function"
    },
    {
      "constant": false,
      "inputs": [
        {
          "name": "_token",
          "type": "address"
        }
      ],
      "name": "distributeRewards",
      "outputs": [],
      "payable": false,
      "stateMutability": "nonpayable",
      "type": "function"
    },
    {
      "constant": false,
      "inputs": [
        {
          "name": "_token",
          "type": "address"
        }
      ],
      "name": "withdrawReward",
      "outputs": [],
      "payable": false,
      "stateMutability": "nonpayable",
      "type": "function"
    }
  ],
  "bytecode": "0x6080604052336000806101000a81548173ffffffffffffffffffffffffffffffffffffffff021916908373ffffffffffffffffffffffffffffffffffffffff16021790555061136f806100536000396000f3006080604052600436106100db576000357c0100000000000000000000000000000000000000000000000000000000900463ffffffff1680630e15561a146100e05780631d62ebd91461010b5780631de9d9b61461016257806341cf515a146101a55780634224a05714610207578063715018a61461025e5780637ca44fcf146102755780638af1ac9b146102ec5780638da5cb5b1461032f578063918cb3b114610386578063aadddd96146103f3578063b86e321c14610460578063da70f264146104a3578063e7461ba4146104e6578063f2fde38b1461055d575b600080fd5b3480156100ec57600080fd5b506100f56105a0565b6040518082815260200191505060405180910390f35b34801561011757600080fd5b5061014c600480360381019080803573ffffffffffffffffffffffffffffffffffffffff16906020019092919050505061065a565b6040518082815260200191505060405180910390f35b34801561016e57600080fd5b506101a3600480360381019080803573ffffffffffffffffffffffffffffffffffffffff1690602001909291905050506106a3565b005b3480156101b157600080fd5b506101e6600480360381019080803573ffffffffffffffffffffffffffffffffffffffff1690602001909291905050506107a7565b60405180831515151581526020018281526020019250505060405180910390f35b34801561021357600080fd5b50610248600480360381019080803573ffffffffffffffffffffffffffffffffffffffff169060200190929190505050610852565b6040518082815260200191505060405180910390f35b34801561026a57600080fd5b5061027361094b565b005b34801561028157600080fd5b506102d6600480360381019080803573ffffffffffffffffffffffffffffffffffffffff169060200190929190803573ffffffffffffffffffffffffffffffffffffffff169060200190929190505050610a4d565b6040518082815260200191505060405180910390f35b3480156102f857600080fd5b5061032d600480360381019080803573ffffffffffffffffffffffffffffffffffffffff169060200190929190505050610ae0565b005b34801561033b57600080fd5b50610344610bcf565b604051808273ffffffffffffffffffffffffffffffffffffffff1673ffffffffffffffffffffffffffffffffffffffff16815260200191505060405180910390f35b34801561039257600080fd5b506103f160048036038101908080359060200190929190803573ffffffffffffffffffffffffffffffffffffffff169060200190929190803573ffffffffffffffffffffffffffffffffffffffff169060200190929190505050610bf4565b005b3480156103ff57600080fd5b5061045e60048036038101908080359060200190929190803573ffffffffffffffffffffffffffffffffffffffff169060200190929190803573ffffffffffffffffffffffffffffffffffffffff169060200190929190505050610d97565b005b34801561046c57600080fd5b506104a1600480360381019080803573ffffffffffffffffffffffffffffffffffffffff169060200190929190505050610f3a565b005b3480156104af57600080fd5b506104e4600480360381019080803573ffffffffffffffffffffffffffffffffffffffff1690602001909291905050506110a6565b005b3480156104f257600080fd5b50610547600480360381019080803573ffffffffffffffffffffffffffffffffffffffff169060200190929190803573ffffffffffffffffffffffffffffffffffffffff169060200190929190505050611126565b6040518082815260200191505060405180910390f35b34801561056957600080fd5b5061059e600480360381019080803573ffffffffffffffffffffffffffffffffffffffff1690602001909291905050506111ad565b005b6000806000809150600090505b60018054905081101561065257610645600360006001848154811015156105d057fe5b9060005260206000200160009054906101000a900473ffffffffffffffffffffffffffffffffffffffff1673ffffffffffffffffffffffffffffffffffffffff1673ffffffffffffffffffffffffffffffffffffffff168152602001908152602001600020548361121490919063ffffffff16565b91506001810190506105ad565b819250505090565b6000600360008373ffffffffffffffffffffffffffffffffffffffff1673ffffffffffffffffffffffffffffffffffffffff168152602001908152602001600020549050919050565b60008060008092505b6001805490508310156107a1576001838154811015156106c857fe5b9060005260206000200160009054906101000a900473ffffffffffffffffffffffffffffffffffffffff1691506106ff8285610a4d565b905061075381600360008573ffffffffffffffffffffffffffffffffffffffff1673ffffffffffffffffffffffffffffffffffffffff1681526020019081526020016000205461121490919063ffffffff16565b600360008473ffffffffffffffffffffffffffffffffffffffff1673ffffffffffffffffffffffffffffffffffffffff168152602001908152602001600020819055506001830192506106ac565b50505050565b60008060008090505b600180549050811015610841576001818154811015156107cc57fe5b9060005260206000200160009054906101000a900473ffffffffffffffffffffffffffffffffffffffff1673ffffffffffffffffffffffffffffffffffffffff168473ffffffffffffffffffffffffffffffffffffffff161415610836576001819250925061084c565b6001810190506107b0565b600080809050925092505b50915091565b6000806000809150600090505b600180549050811015610941576109346002600060018481548110151561088257fe5b9060005260206000200160009054906101000a900473ffffffffffffffffffffffffffffffffffffffff1673ffffffffffffffffffffffffffffffffffffffff1673ffffffffffffffffffffffffffffffffffffffff16815260200190815260200160002060008673ffffffffffffffffffffffffffffffffffffffff1673ffffffffffffffffffffffffffffffffffffffff168152602001908152602001600020548361121490919063ffffffff16565b915060018101905061085f565b8192505050919050565b6000809054906101000a900473ffffffffffffffffffffffffffffffffffffffff1673ffffffffffffffffffffffffffffffffffffffff163373ffffffffffffffffffffffffffffffffffffffff161415156109a657600080fd5b6000809054906101000a900473ffffffffffffffffffffffffffffffffffffffff1673ffffffffffffffffffffffffffffffffffffffff167ff8df31144d9c2f0f6b59d69b8b98abd5459d07f2742c4df920b25aae33c6482060405160405180910390a260008060006101000a81548173ffffffffffffffffffffffffffffffffffffffff021916908373ffffffffffffffffffffffffffffffffffffffff160217905550565b60006064600260008573ffffffffffffffffffffffffffffffffffffffff1673ffffffffffffffffffffffffffffffffffffffff16815260200190815260200160002060008473ffffffffffffffffffffffffffffffffffffffff1673ffffffffffffffffffffffffffffffffffffffff16815260200190815260200160002054811515610ad757fe5b04905092915050565b600080610aec836107a7565b915091508115610bca57600181815481101515610b0557fe5b9060005260206000200160006101000a81549073ffffffffffffffffffffffffffffffffffffffff0219169055600180808054905003815481101515610b4757fe5b9060005260206000200160009054906101000a900473ffffffffffffffffffffffffffffffffffffffff16600182815481101515610b8157fe5b9060005260206000200160006101000a81548173ffffffffffffffffffffffffffffffffffffffff021916908373ffffffffffffffffffffffffffffffffffffffff1602179055505b505050565b6000809054906101000a900473ffffffffffffffffffffffffffffffffffffffff1681565b610c8383600260008573ffffffffffffffffffffffffffffffffffffffff1673ffffffffffffffffffffffffffffffffffffffff16815260200190815260200160002060008473ffffffffffffffffffffffffffffffffffffffff1673ffffffffffffffffffffffffffffffffffffffff1681526020019081526020016000205461123090919063ffffffff16565b600260008473ffffffffffffffffffffffffffffffffffffffff1673ffffffffffffffffffffffffffffffffffffffff16815260200190815260200160002060008373ffffffffffffffffffffffffffffffffffffffff1673ffffffffffffffffffffffffffffffffffffffff168152602001908152602001600020819055506000600260008473ffffffffffffffffffffffffffffffffffffffff1673ffffffffffffffffffffffffffffffffffffffff16815260200190815260200160002060008373ffffffffffffffffffffffffffffffffffffffff1673ffffffffffffffffffffffffffffffffffffffff168152602001908152602001600020541415610d9257610d9182610ae0565b5b505050565b6000600260008473ffffffffffffffffffffffffffffffffffffffff1673ffffffffffffffffffffffffffffffffffffffff16815260200190815260200160002060008373ffffffffffffffffffffffffffffffffffffffff1673ffffffffffffffffffffffffffffffffffffffff168152602001908152602001600020541415610e2657610e25826110a6565b5b610eb583600260008573ffffffffffffffffffffffffffffffffffffffff1673ffffffffffffffffffffffffffffffffffffffff16815260200190815260200160002060008473ffffffffffffffffffffffffffffffffffffffff1673ffffffffffffffffffffffffffffffffffffffff1681526020019081526020016000205461121490919063ffffffff16565b600260008473ffffffffffffffffffffffffffffffffffffffff1673ffffffffffffffffffffffffffffffffffffffff16815260200190815260200160002060008373ffffffffffffffffffffffffffffffffffffffff1673ffffffffffffffffffffffffffffffffffffffff16815260200190815260200160002081905550505050565b6000600360003373ffffffffffffffffffffffffffffffffffffffff1673ffffffffffffffffffffffffffffffffffffffff1681526020019081526020016000205490506000600360003373ffffffffffffffffffffffffffffffffffffffff1673ffffffffffffffffffffffffffffffffffffffff168152602001908152602001600020819055508173ffffffffffffffffffffffffffffffffffffffff166340c10f1933836040518363ffffffff167c0100000000000000000000000000000000000000000000000000000000028152600401808373ffffffffffffffffffffffffffffffffffffffff1673ffffffffffffffffffffffffffffffffffffffff16815260200182815260200192505050602060405180830381600087803b15801561106657600080fd5b505af115801561107a573d6000803e3d6000fd5b505050506040513d602081101561109057600080fd5b8101908080519060200190929190505050505050565b60006110b1826107a7565b5090508015156111225760018290806001815401808255809150509060018203906000526020600020016000909192909190916101000a81548173ffffffffffffffffffffffffffffffffffffffff021916908373ffffffffffffffffffffffffffffffffffffffff160217905550505b5050565b6000600260008473ffffffffffffffffffffffffffffffffffffffff1673ffffffffffffffffffffffffffffffffffffffff16815260200190815260200160002060008373ffffffffffffffffffffffffffffffffffffffff1673ffffffffffffffffffffffffffffffffffffffff16815260200190815260200160002054905092915050565b6000809054906101000a900473ffffffffffffffffffffffffffffffffffffffff1673ffffffffffffffffffffffffffffffffffffffff163373ffffffffffffffffffffffffffffffffffffffff1614151561120857600080fd5b61121181611249565b50565b6000818301905082811015151561122757fe5b80905092915050565b600082821115151561123e57fe5b818303905092915050565b600073ffffffffffffffffffffffffffffffffffffffff168173ffffffffffffffffffffffffffffffffffffffff161415151561128557600080fd5b8073ffffffffffffffffffffffffffffffffffffffff166000809054906101000a900473ffffffffffffffffffffffffffffffffffffffff1673ffffffffffffffffffffffffffffffffffffffff167f8be0079c531659141344cd1fd0a4f28419497f9722a3daafe3b4186f6b6457e060405160405180910390a3806000806101000a81548173ffffffffffffffffffffffffffffffffffffffff021916908373ffffffffffffffffffffffffffffffffffffffff160217905550505600a165627a7a72305820d28e4ec92bbe0e377b1ebdb633177ee933651df8f85966967083a490355c417f0029",
  "source": "pragma solidity ^0.4.23;\r\n\r\nimport \"../node_modules/zeppelin-solidity/contracts/ownership/Ownable.sol\";\r\nimport \"../node_modules/zeppelin-solidity/contracts/math/SafeMath.sol\";\r\n\r\nimport \"../node_modules/zeppelin-solidity/contracts/token/ERC20/DetailedERC20.sol\";\r\nimport \"./GenericERC20.sol\";\r\n\r\ncontract BackingERC20Token is Ownable {\r\n    using SafeMath for uint256;\r\n\r\n    /**\r\n     * @notice We usually require to know who are all the backholders.\r\n     */\r\n    address[] internal backholders;\r\n\r\n    /**\r\n     * @notice The backs for each backholder.\r\n     */\r\n    // mapping(address => uint256) internal backs;\r\n    mapping(address => mapping(address => uint256)) internal backes;\r\n\r\n    /**\r\n     * @notice The accumulated rewards for each backholder.\r\n     */\r\n    mapping(address => uint256) internal rewards;\r\n\r\n    // ---------- STAKES ----------\r\n\r\n    /**\r\n     * @notice A method for a backholder to create a back.\r\n     * @param _back The size of the back to be created.\r\n     */\r\n    // function createBack(uint256 _back, GenericERC20 _token) public {\r\n    function createBack(\r\n        uint256 _back,\r\n        address _address,\r\n        GenericERC20 _token\r\n    ) public {\r\n        //\r\n        // BurnableToken token = BurnableToken(_token);\r\n        // _token.burn(_back);\r\n        if (backes[_address][_token] == 0) addBackholder(_address);\r\n        backes[_address][_token] = backes[_address][_token].add(_back);\r\n    }\r\n\r\n    /**\r\n     * @notice A method for a backholder to remove a back.\r\n     * @param _back The size of the back to be removed.\r\n     */\r\n    // function removeBack(uint256 _back, MintableToken _token) public {\r\n    function removeBack(\r\n        uint256 _back,\r\n        address _address,\r\n        GenericERC20 _token\r\n    ) public {\r\n        backes[_address][_token] = backes[_address][_token].sub(_back);\r\n        if (backes[_address][_token] == 0) removeBackholder(_address);\r\n\r\n        // _token.mint(msg.sender, _back);\r\n    }\r\n\r\n    /**\r\n     * @notice A method to retrieve the back for a backholder.\r\n     * @param _backholder The backholder to retrieve the back for.\r\n     * @return uint256 The amount of wei backd.\r\n     */\r\n    function backOf(address _backholder, GenericERC20 _token)\r\n        public\r\n        view\r\n        returns (uint256)\r\n    {\r\n        return backes[_backholder][_token];\r\n    }\r\n\r\n    /**\r\n     * @notice A method to the aggregated backs from all backholders.\r\n     * @return uint256 The aggregated backs from all backholders.\r\n     */\r\n    function totalBacks(GenericERC20 _token) public view returns (uint256) {\r\n        uint256 _totalBacks = 0;\r\n        for (uint256 s = 0; s < backholders.length; s += 1) {\r\n            _totalBacks = _totalBacks.add(backes[backholders[s]][_token]);\r\n        }\r\n        return _totalBacks;\r\n    }\r\n\r\n    // ---------- STAKEHOLDERS ----------\r\n\r\n    /**\r\n     * @notice A method to check if an address is a backholder.\r\n     * @param _address The address to verify.\r\n     * @return bool, uint256 Whether the address is a backholder,\r\n     * and if so its position in the backholders array.\r\n     */\r\n    function isBackholder(address _address)\r\n        public\r\n        view\r\n        returns (bool, uint256)\r\n    {\r\n        for (uint256 s = 0; s < backholders.length; s += 1) {\r\n            if (_address == backholders[s]) return (true, s);\r\n        }\r\n        return (false, 0);\r\n    }\r\n\r\n    /**\r\n     * @notice A method to add a backholder.\r\n     * @param _backholder The backholder to add.\r\n     */\r\n    function addBackholder(address _backholder) public {\r\n        (bool _isBackholder, ) = isBackholder(_backholder);\r\n        if (!_isBackholder) backholders.push(_backholder);\r\n    }\r\n\r\n    /**\r\n     * @notice A method to remove a backholder.\r\n     * @param _backholder The backholder to remove.\r\n     */\r\n    function removeBackholder(address _backholder) public {\r\n        (bool _isBackholder, uint256 s) = isBackholder(_backholder);\r\n        if (_isBackholder) {\r\n            // backholders.pop();\r\n            delete backholders[s];\r\n            backholders[s] = backholders[backholders.length - 1];\r\n        }\r\n    }\r\n\r\n    // ---------- REWARDS ----------\r\n\r\n    /**\r\n     * @notice A method to allow a backholder to check his rewards.\r\n     * @param _backholder The backholder to check rewards for.\r\n     */\r\n    function rewardOf(address _backholder) public view returns (uint256) {\r\n        return rewards[_backholder];\r\n    }\r\n\r\n    /**\r\n     * @notice A method to the aggregated rewards from all backholders.\r\n     * @return uint256 The aggregated rewards from all backholders.\r\n     */\r\n    function totalRewards() public view returns (uint256) {\r\n        uint256 _totalRewards = 0;\r\n        for (uint256 s = 0; s < backholders.length; s += 1) {\r\n            _totalRewards = _totalRewards.add(rewards[backholders[s]]);\r\n        }\r\n        return _totalRewards;\r\n    }\r\n\r\n    /**\r\n     * @notice A simple method that calculates the rewards for each backholder.\r\n     * @param _backholder The backholder to calculate rewards for.\r\n     */\r\n    function calculateReward(address _backholder, GenericERC20 _token)\r\n        public\r\n        view\r\n        returns (uint256)\r\n    {\r\n        return backes[_backholder][_token] / 100;\r\n    }\r\n\r\n    /**\r\n     * @notice A method to distribute rewards to all backholders.\r\n     */\r\n    // function distributeRewards() public onlyOwner {\r\n    function distributeRewards(GenericERC20 _token) public {\r\n        for (uint256 s = 0; s < backholders.length; s += 1) {\r\n            address backholder = backholders[s];\r\n            uint256 reward = calculateReward(backholder, _token);\r\n            rewards[backholder] = rewards[backholder].add(reward);\r\n        }\r\n    }\r\n\r\n    /**\r\n     * @notice A method to allow a backholder to withdraw his rewards.\r\n     */\r\n    function withdrawReward(MintableToken _token) public {\r\n        uint256 reward = rewards[msg.sender];\r\n        rewards[msg.sender] = 0;\r\n        _token.mint(msg.sender, reward);\r\n    }\r\n}\r\n",
  "sourcePath": "D:/Ibrahim/github-projects/blockchain/nftvrepo/contracts/BackingERC20Token.sol",
  "compiler": {
    "name": "solc",
    "version": "0.4.26+commit.4563c3fc.Emscripten.clang"
  },
  "schemaVersion": "3.3.1",
  "updatedAt": "2020-12-10T12:22:08.140Z",
  "networkType": "ethereum",
  "devdoc": {
    "methods": {
      "addBackholder(address)": {
        "params": {
          "_backholder": "The backholder to add.\r"
        }
      },
      "backOf(address,address)": {
        "params": {
          "_backholder": "The backholder to retrieve the back for.\r"
        },
        "return": "uint256 The amount of wei backd.\r"
      },
      "calculateReward(address,address)": {
        "params": {
          "_backholder": "The backholder to calculate rewards for.\r"
        }
      },
      "createBack(uint256,address,address)": {
        "params": {
          "_back": "The size of the back to be created.\r"
        }
      },
      "isBackholder(address)": {
        "params": {
          "_address": "The address to verify.\r"
        },
        "return": "bool, uint256 Whether the address is a backholder,\r and if so its position in the backholders array.\r"
      },
      "removeBack(uint256,address,address)": {
        "params": {
          "_back": "The size of the back to be removed.\r"
        }
      },
      "removeBackholder(address)": {
        "params": {
          "_backholder": "The backholder to remove.\r"
        }
      },
      "renounceOwnership()": {
        "details": "Allows the current owner to relinquish control of the contract."
      },
      "rewardOf(address)": {
        "params": {
          "_backholder": "The backholder to check rewards for.\r"
        }
      },
      "totalBacks(address)": {
        "return": "uint256 The aggregated backs from all backholders.\r"
      },
      "totalRewards()": {
        "return": "uint256 The aggregated rewards from all backholders.\r"
      },
      "transferOwnership(address)": {
        "details": "Allows the current owner to transfer control of the contract to a newOwner.",
        "params": {
          "_newOwner": "The address to transfer ownership to."
        }
      }
    }
  },
  "userdoc": {
    "methods": {
      "addBackholder(address)": {
        "notice": "A method to add a backholder.\r"
      },
      "backOf(address,address)": {
        "notice": "A method to retrieve the back for a backholder.\r"
      },
      "calculateReward(address,address)": {
        "notice": "A simple method that calculates the rewards for each backholder.\r"
      },
      "createBack(uint256,address,address)": {
        "notice": "A method for a backholder to create a back.\r"
      },
      "distributeRewards(address)": {
        "notice": "A method to distribute rewards to all backholders.\r"
      },
      "isBackholder(address)": {
        "notice": "A method to check if an address is a backholder.\r"
      },
      "removeBack(uint256,address,address)": {
        "notice": "A method for a backholder to remove a back.\r"
      },
      "removeBackholder(address)": {
        "notice": "A method to remove a backholder.\r"
      },
      "renounceOwnership()": {
        "notice": "Renouncing to ownership will leave the contract without an owner. It will not be possible to call the functions with the `onlyOwner` modifier anymore."
      },
      "rewardOf(address)": {
        "notice": "A method to allow a backholder to check his rewards.\r"
      },
      "totalBacks(address)": {
        "notice": "A method to the aggregated backs from all backholders.\r"
      },
      "totalRewards()": {
        "notice": "A method to the aggregated rewards from all backholders.\r"
      },
      "withdrawReward(address)": {
        "notice": "A method to allow a backholder to withdraw his rewards.\r"
      }
    }
  }
}