{
  "contractName": "DelegateBackingERC20Token",
  "abi": [
    {
      "constant": false,
      "inputs": [],
      "name": "renounceOwnership",
      "outputs": [],
      "payable": false,
      "stateMutability": "nonpayable",
      "type": "function"
    },
    {
      "constant": true,
      "inputs": [],
      "name": "owner",
      "outputs": [
        {
          "name": "",
          "type": "address"
        }
      ],
      "payable": false,
      "stateMutability": "view",
      "type": "function"
    },
    {
      "constant": false,
      "inputs": [
        {
          "name": "_newOwner",
          "type": "address"
        }
      ],
      "name": "transferOwnership",
      "outputs": [],
      "payable": false,
      "stateMutability": "nonpayable",
      "type": "function"
    },
    {
      "anonymous": false,
      "inputs": [
        {
          "indexed": true,
          "name": "previousOwner",
          "type": "address"
        }
      ],
      "name": "OwnershipRenounced",
      "type": "event"
    },
    {
      "anonymous": false,
      "inputs": [
        {
          "indexed": true,
          "name": "previousOwner",
          "type": "address"
        },
        {
          "indexed": true,
          "name": "newOwner",
          "type": "address"
        }
      ],
      "name": "OwnershipTransferred",
      "type": "event"
    },
    {
      "constant": false,
      "inputs": [
        {
          "name": "_back",
          "type": "uint256"
        },
        {
          "name": "_proposalAddress",
          "type": "uint256"
        },
        {
          "name": "_delegator",
          "type": "address"
        },
        {
          "name": "_benefeciary",
          "type": "address"
        },
        {
          "name": "_token",
          "type": "address"
        },
        {
          "name": "principal",
          "type": "bool"
        },
        {
          "name": "dlnRewards",
          "type": "bool"
        },
        {
          "name": "dlnGRewards",
          "type": "bool"
        },
        {
          "name": "delegateControl",
          "type": "bool"
        }
      ],
      "name": "createBack",
      "outputs": [],
      "payable": false,
      "stateMutability": "nonpayable",
      "type": "function"
    },
    {
      "constant": false,
      "inputs": [
        {
          "name": "_back",
          "type": "uint256"
        },
        {
          "name": "_delegator",
          "type": "address"
        }
      ],
      "name": "removeBack",
      "outputs": [],
      "payable": false,
      "stateMutability": "nonpayable",
      "type": "function"
    },
    {
      "constant": true,
      "inputs": [
        {
          "name": "_backholder",
          "type": "address"
        }
      ],
      "name": "backOf",
      "outputs": [
        {
          "name": "",
          "type": "uint256"
        }
      ],
      "payable": false,
      "stateMutability": "view",
      "type": "function"
    },
    {
      "constant": true,
      "inputs": [],
      "name": "totalBacks",
      "outputs": [
        {
          "name": "",
          "type": "uint256"
        }
      ],
      "payable": false,
      "stateMutability": "view",
      "type": "function"
    },
    {
      "constant": true,
      "inputs": [
        {
          "name": "_address",
          "type": "address"
        }
      ],
      "name": "isBackholder",
      "outputs": [
        {
          "name": "",
          "type": "bool"
        },
        {
          "name": "",
          "type": "uint256"
        }
      ],
      "payable": false,
      "stateMutability": "view",
      "type": "function"
    },
    {
      "constant": true,
      "inputs": [
        {
          "name": "_proposalAddress",
          "type": "uint256"
        }
      ],
      "name": "isProposal",
      "outputs": [
        {
          "name": "",
          "type": "bool"
        },
        {
          "name": "",
          "type": "uint256"
        }
      ],
      "payable": false,
      "stateMutability": "view",
      "type": "function"
    },
    {
      "constant": true,
      "inputs": [
        {
          "name": "_proposalAddress",
          "type": "uint256"
        }
      ],
      "name": "getProposal",
      "outputs": [
        {
          "name": "",
          "type": "uint256"
        },
        {
          "name": "",
          "type": "address"
        },
        {
          "name": "",
          "type": "address"
        },
        {
          "name": "",
          "type": "address"
        },
        {
          "name": "",
          "type": "bool"
        },
        {
          "name": "",
          "type": "bool"
        },
        {
          "name": "",
          "type": "bool"
        }
      ],
      "payable": false,
      "stateMutability": "view",
      "type": "function"
    },
    {
      "constant": true,
      "inputs": [
        {
          "name": "_address",
          "type": "address"
        }
      ],
      "name": "getBenefeciary",
      "outputs": [
        {
          "name": "",
          "type": "uint256"
        },
        {
          "name": "",
          "type": "address"
        },
        {
          "name": "",
          "type": "address"
        },
        {
          "name": "",
          "type": "address"
        },
        {
          "name": "",
          "type": "bool"
        },
        {
          "name": "",
          "type": "bool"
        },
        {
          "name": "",
          "type": "bool"
        }
      ],
      "payable": false,
      "stateMutability": "view",
      "type": "function"
    },
    {
      "constant": true,
      "inputs": [
        {
          "name": "_address",
          "type": "address"
        }
      ],
      "name": "isDelegateControl",
      "outputs": [
        {
          "name": "",
          "type": "bool"
        }
      ],
      "payable": false,
      "stateMutability": "view",
      "type": "function"
    },
    {
      "constant": true,
      "inputs": [
        {
          "name": "_address",
          "type": "address"
        }
      ],
      "name": "getProposalAddress",
      "outputs": [
        {
          "name": "",
          "type": "uint256"
        }
      ],
      "payable": false,
      "stateMutability": "view",
      "type": "function"
    },
    {
      "constant": false,
      "inputs": [
        {
          "name": "_backholder",
          "type": "address"
        }
      ],
      "name": "addBackholder",
      "outputs": [],
      "payable": false,
      "stateMutability": "nonpayable",
      "type": "function"
    },
    {
      "constant": false,
      "inputs": [
        {
          "name": "_proposal",
          "type": "uint256"
        }
      ],
      "name": "addProposal",
      "outputs": [],
      "payable": false,
      "stateMutability": "nonpayable",
      "type": "function"
    },
    {
      "constant": false,
      "inputs": [
        {
          "name": "_backholder",
          "type": "address"
        }
      ],
      "name": "removeBackholder",
      "outputs": [],
      "payable": false,
      "stateMutability": "nonpayable",
      "type": "function"
    },
    {
      "constant": false,
      "inputs": [
        {
          "name": "_proposalAddress",
          "type": "uint256"
        }
      ],
      "name": "removeProposal",
      "outputs": [],
      "payable": false,
      "stateMutability": "nonpayable",
      "type": "function"
    }
  ],
  "bytecode": "0x6080604052336000806101000a81548173ffffffffffffffffffffffffffffffffffffffff021916908373ffffffffffffffffffffffffffffffffffffffff160217905550611b04806100536000396000f3006080604052600436106100f1576000357c0100000000000000000000000000000000000000000000000000000000900463ffffffff1680630a6b7df3146100f65780631316a3981461014d5780633fec91a41461017857806341cf515a146101a55780634ce4e6c71461020757806370f4dbd714610234578063715018a61461028f5780638af1ac9b146102a65780638da5cb5b146102e957806390ba93b6146103405780639f8e0f151461038d578063ae6dbe4f1461049e578063c7f758a8146104f5578063da70f264146105f0578063e117199914610633578063f2fde38b1461067f578063fb50625e146106c2575b600080fd5b34801561010257600080fd5b50610137600480360381019080803573ffffffffffffffffffffffffffffffffffffffff169060200190929190505050610789565b6040518082815260200191505060405180910390f35b34801561015957600080fd5b506101626107d5565b6040518082815260200191505060405180910390f35b34801561018457600080fd5b506101a360048036038101908080359060200190929190505050610892565b005b3480156101b157600080fd5b506101e6600480360381019080803573ffffffffffffffffffffffffffffffffffffffff1690602001909291905050506108d8565b60405180831515151581526020018281526020019250505060405180910390f35b34801561021357600080fd5b5061023260048036038101908080359060200190929190505050610ae6565b005b34801561024057600080fd5b50610275600480360381019080803573ffffffffffffffffffffffffffffffffffffffff169060200190929190505050610b5e565b604051808215151515815260200191505060405180910390f35b34801561029b57600080fd5b506102a4610bb7565b005b3480156102b257600080fd5b506102e7600480360381019080803573ffffffffffffffffffffffffffffffffffffffff169060200190929190505050610cb9565b005b3480156102f557600080fd5b506102fe610daa565b604051808273ffffffffffffffffffffffffffffffffffffffff1673ffffffffffffffffffffffffffffffffffffffff16815260200191505060405180910390f35b34801561034c57600080fd5b5061038b60048036038101908080359060200190929190803573ffffffffffffffffffffffffffffffffffffffff169060200190929190505050610dcf565b005b34801561039957600080fd5b506103ce600480360381019080803573ffffffffffffffffffffffffffffffffffffffff169060200190929190505050610f0e565b604051808881526020018773ffffffffffffffffffffffffffffffffffffffff1673ffffffffffffffffffffffffffffffffffffffff1681526020018673ffffffffffffffffffffffffffffffffffffffff1673ffffffffffffffffffffffffffffffffffffffff1681526020018573ffffffffffffffffffffffffffffffffffffffff1673ffffffffffffffffffffffffffffffffffffffff16815260200184151515158152602001831515151581526020018215151515815260200197505050505050505060405180910390f35b3480156104aa57600080fd5b506104df600480360381019080803573ffffffffffffffffffffffffffffffffffffffff16906020019092919050505061118e565b6040518082815260200191505060405180910390f35b34801561050157600080fd5b50610520600480360381019080803590602001909291905050506111da565b604051808881526020018773ffffffffffffffffffffffffffffffffffffffff1673ffffffffffffffffffffffffffffffffffffffff1681526020018673ffffffffffffffffffffffffffffffffffffffff1673ffffffffffffffffffffffffffffffffffffffff1681526020018573ffffffffffffffffffffffffffffffffffffffff1673ffffffffffffffffffffffffffffffffffffffff16815260200184151515158152602001831515151581526020018215151515815260200197505050505050505060405180910390f35b3480156105fc57600080fd5b50610631600480360381019080803573ffffffffffffffffffffffffffffffffffffffff169060200190929190505050611326565b005b34801561063f57600080fd5b5061065e600480360381019080803590602001909291905050506113a6565b60405180831515151581526020018281526020019250505060405180910390f35b34801561068b57600080fd5b506106c0600480360381019080803573ffffffffffffffffffffffffffffffffffffffff169060200190929190505050611405565b005b3480156106ce57600080fd5b506107876004803603810190808035906020019092919080359060200190929190803573ffffffffffffffffffffffffffffffffffffffff169060200190929190803573ffffffffffffffffffffffffffffffffffffffff169060200190929190803573ffffffffffffffffffffffffffffffffffffffff16906020019092919080351515906020019092919080351515906020019092919080351515906020019092919080351515906020019092919050505061146c565b005b6000600160008373ffffffffffffffffffffffffffffffffffffffff1673ffffffffffffffffffffffffffffffffffffffff168152602001908152602001600020600101549050919050565b6000806000809150600090505b60038054905081101561088a5761087d6001600060038481548110151561080557fe5b9060005260206000200160009054906101000a900473ffffffffffffffffffffffffffffffffffffffff1673ffffffffffffffffffffffffffffffffffffffff1673ffffffffffffffffffffffffffffffffffffffff16815260200190815260200160002060000154836119a990919063ffffffff16565b91506001810190506107e2565b819250505090565b600061089d826113a6565b5090508015156108d45760048290806001815401808255809150509060018203906000526020600020016000909192909190915055505b5050565b60008060008090505b600380549050811015610ad5576003818154811015156108fd57fe5b9060005260206000200160009054906101000a900473ffffffffffffffffffffffffffffffffffffffff1673ffffffffffffffffffffffffffffffffffffffff168473ffffffffffffffffffffffffffffffffffffffff161480156109e857506001600060038381548110151561097057fe5b9060005260206000200160009054906101000a900473ffffffffffffffffffffffffffffffffffffffff1673ffffffffffffffffffffffffffffffffffffffff1673ffffffffffffffffffffffffffffffffffffffff16815260200190815260200160002060040160179054906101000a900460ff16155b80610ab9575060016000600383815481101515610a0157fe5b9060005260206000200160009054906101000a900473ffffffffffffffffffffffffffffffffffffffff1673ffffffffffffffffffffffffffffffffffffffff1673ffffffffffffffffffffffffffffffffffffffff16815260200190815260200160002060030160009054906101000a900473ffffffffffffffffffffffffffffffffffffffff1673ffffffffffffffffffffffffffffffffffffffff168473ffffffffffffffffffffffffffffffffffffffff16145b15610aca5760018192509250610ae0565b6001810190506108e1565b600080809050925092505b50915091565b600080610af2836113a6565b915091508115610b5957600481815481101515610b0b57fe5b90600052602060002001600090556004600160048054905003815481101515610b3057fe5b9060005260206000200154600482815481101515610b4a57fe5b90600052602060002001819055505b505050565b6000600160008373ffffffffffffffffffffffffffffffffffffffff1673ffffffffffffffffffffffffffffffffffffffff16815260200190815260200160002060040160179054906101000a900460ff169050919050565b6000809054906101000a900473ffffffffffffffffffffffffffffffffffffffff1673ffffffffffffffffffffffffffffffffffffffff163373ffffffffffffffffffffffffffffffffffffffff16141515610c1257600080fd5b6000809054906101000a900473ffffffffffffffffffffffffffffffffffffffff1673ffffffffffffffffffffffffffffffffffffffff167ff8df31144d9c2f0f6b59d69b8b98abd5459d07f2742c4df920b25aae33c6482060405160405180910390a260008060006101000a81548173ffffffffffffffffffffffffffffffffffffffff021916908373ffffffffffffffffffffffffffffffffffffffff160217905550565b600080610cc5836108d8565b915091508115610da557600381815481101515610cde57fe5b9060005260206000200160006101000a81549073ffffffffffffffffffffffffffffffffffffffff02191690556003600160038054905003815481101515610d2257fe5b9060005260206000200160009054906101000a900473ffffffffffffffffffffffffffffffffffffffff16600382815481101515610d5c57fe5b9060005260206000200160006101000a81548173ffffffffffffffffffffffffffffffffffffffff021916908373ffffffffffffffffffffffffffffffffffffffff1602179055505b505050565b6000809054906101000a900473ffffffffffffffffffffffffffffffffffffffff1681565b610e2482600160008473ffffffffffffffffffffffffffffffffffffffff1673ffffffffffffffffffffffffffffffffffffffff168152602001908152602001600020600001546119c590919063ffffffff16565b600160008373ffffffffffffffffffffffffffffffffffffffff1673ffffffffffffffffffffffffffffffffffffffff168152602001908152602001600020600001819055506000600160008373ffffffffffffffffffffffffffffffffffffffff1673ffffffffffffffffffffffffffffffffffffffff168152602001908152602001600020600001541415610f0a57610ebe81610cb9565b610f09600160008373ffffffffffffffffffffffffffffffffffffffff1673ffffffffffffffffffffffffffffffffffffffff16815260200190815260200160002060010154610ae6565b5b5050565b6000806000806000806000600160008973ffffffffffffffffffffffffffffffffffffffff1673ffffffffffffffffffffffffffffffffffffffff16815260200190815260200160002060000154600160008a73ffffffffffffffffffffffffffffffffffffffff1673ffffffffffffffffffffffffffffffffffffffff16815260200190815260200160002060020160009054906101000a900473ffffffffffffffffffffffffffffffffffffffff16600160008b73ffffffffffffffffffffffffffffffffffffffff1673ffffffffffffffffffffffffffffffffffffffff16815260200190815260200160002060030160009054906101000a900473ffffffffffffffffffffffffffffffffffffffff16600160008c73ffffffffffffffffffffffffffffffffffffffff1673ffffffffffffffffffffffffffffffffffffffff16815260200190815260200160002060040160009054906101000a900473ffffffffffffffffffffffffffffffffffffffff16600160008d73ffffffffffffffffffffffffffffffffffffffff1673ffffffffffffffffffffffffffffffffffffffff16815260200190815260200160002060040160149054906101000a900460ff16600160008e73ffffffffffffffffffffffffffffffffffffffff1673ffffffffffffffffffffffffffffffffffffffff16815260200190815260200160002060040160159054906101000a900460ff16600160008f73ffffffffffffffffffffffffffffffffffffffff1673ffffffffffffffffffffffffffffffffffffffff16815260200190815260200160002060040160169054906101000a900460ff169650965096509650965096509650919395979092949650565b6000600160008373ffffffffffffffffffffffffffffffffffffffff1673ffffffffffffffffffffffffffffffffffffffff168152602001908152602001600020600001549050919050565b60008060008060008060006002600089815260200190815260200160002060000154600260008a815260200190815260200160002060020160009054906101000a900473ffffffffffffffffffffffffffffffffffffffff16600260008b815260200190815260200160002060030160009054906101000a900473ffffffffffffffffffffffffffffffffffffffff16600260008c815260200190815260200160002060040160009054906101000a900473ffffffffffffffffffffffffffffffffffffffff16600260008d815260200190815260200160002060040160149054906101000a900460ff16600260008e815260200190815260200160002060040160159054906101000a900460ff16600260008f815260200190815260200160002060040160169054906101000a900460ff169650965096509650965096509650919395979092949650565b6000611331826108d8565b5090508015156113a25760038290806001815401808255809150509060018203906000526020600020016000909192909190916101000a81548173ffffffffffffffffffffffffffffffffffffffff021916908373ffffffffffffffffffffffffffffffffffffffff160217905550505b5050565b60008060008090505b6004805490508110156113f4576004818154811015156113cb57fe5b90600052602060002001548414156113e957600181925092506113ff565b6001810190506113af565b600080809050925092505b50915091565b6000809054906101000a900473ffffffffffffffffffffffffffffffffffffffff1673ffffffffffffffffffffffffffffffffffffffff163373ffffffffffffffffffffffffffffffffffffffff1614151561146057600080fd5b611469816119de565b50565b6000600160008973ffffffffffffffffffffffffffffffffffffffff1673ffffffffffffffffffffffffffffffffffffffff1681526020019081526020016000206000015414156114c1576114c087611326565b5b610120604051908101604052808a81526020018981526020018873ffffffffffffffffffffffffffffffffffffffff1681526020018773ffffffffffffffffffffffffffffffffffffffff1681526020018673ffffffffffffffffffffffffffffffffffffffff168152602001851515815260200184151581526020018315158152602001821515815250600160008973ffffffffffffffffffffffffffffffffffffffff1673ffffffffffffffffffffffffffffffffffffffff168152602001908152602001600020600082015181600001556020820151816001015560408201518160020160006101000a81548173ffffffffffffffffffffffffffffffffffffffff021916908373ffffffffffffffffffffffffffffffffffffffff16021790555060608201518160030160006101000a81548173ffffffffffffffffffffffffffffffffffffffff021916908373ffffffffffffffffffffffffffffffffffffffff16021790555060808201518160040160006101000a81548173ffffffffffffffffffffffffffffffffffffffff021916908373ffffffffffffffffffffffffffffffffffffffff16021790555060a08201518160040160146101000a81548160ff02191690831515021790555060c08201518160040160156101000a81548160ff02191690831515021790555060e08201518160040160166101000a81548160ff0219169083151502179055506101008201518160040160176101000a81548160ff021916908315150217905550905050610120604051908101604052808a81526020018981526020018873ffffffffffffffffffffffffffffffffffffffff1681526020018773ffffffffffffffffffffffffffffffffffffffff1681526020018673ffffffffffffffffffffffffffffffffffffffff168152602001851515815260200184151581526020018315158152602001821515815250600260008a8152602001908152602001600020600082015181600001556020820151816001015560408201518160020160006101000a81548173ffffffffffffffffffffffffffffffffffffffff021916908373ffffffffffffffffffffffffffffffffffffffff16021790555060608201518160030160006101000a81548173ffffffffffffffffffffffffffffffffffffffff021916908373ffffffffffffffffffffffffffffffffffffffff16021790555060808201518160040160006101000a81548173ffffffffffffffffffffffffffffffffffffffff021916908373ffffffffffffffffffffffffffffffffffffffff16021790555060a08201518160040160146101000a81548160ff02191690831515021790555060c08201518160040160156101000a81548160ff02191690831515021790555060e08201518160040160166101000a81548160ff0219169083151502179055506101008201518160040160176101000a81548160ff02191690831515021790555090505061195889600160008a73ffffffffffffffffffffffffffffffffffffffff1673ffffffffffffffffffffffffffffffffffffffff168152602001908152602001600020600001546119a990919063ffffffff16565b600160008973ffffffffffffffffffffffffffffffffffffffff1673ffffffffffffffffffffffffffffffffffffffff16815260200190815260200160002060000181905550505050505050505050565b600081830190508281101515156119bc57fe5b80905092915050565b60008282111515156119d357fe5b818303905092915050565b600073ffffffffffffffffffffffffffffffffffffffff168173ffffffffffffffffffffffffffffffffffffffff1614151515611a1a57600080fd5b8073ffffffffffffffffffffffffffffffffffffffff166000809054906101000a900473ffffffffffffffffffffffffffffffffffffffff1673ffffffffffffffffffffffffffffffffffffffff167f8be0079c531659141344cd1fd0a4f28419497f9722a3daafe3b4186f6b6457e060405160405180910390a3806000806101000a81548173ffffffffffffffffffffffffffffffffffffffff021916908373ffffffffffffffffffffffffffffffffffffffff160217905550505600a165627a7a72305820a6660ff1c36cfe69e15098ebd5d5225cd3eaf15ac15d0d7f90dd477a21710bb70029",
  "source": "pragma solidity ^0.4.23;\r\n\r\nimport \"../node_modules/zeppelin-solidity/contracts/ownership/Ownable.sol\";\r\nimport \"../node_modules/zeppelin-solidity/contracts/math/SafeMath.sol\";\r\n\r\nimport \"../node_modules/zeppelin-solidity/contracts/token/ERC20/DetailedERC20.sol\";\r\nimport \"./GenericERC20.sol\";\r\n\r\ncontract DelegateBackingERC20Token is Ownable {\r\n    using SafeMath for uint256;\r\n\r\n    struct Backe {\r\n        uint256 amount;\r\n        uint256 proposalAddress;\r\n        address delegator;\r\n        address beneficiary;\r\n        address token;\r\n        bool principal;\r\n        bool dlnRewards;\r\n        bool dlnGRewards;\r\n        bool delegateControl;\r\n    }\r\n\r\n    struct Proposal {\r\n        uint256 amount;\r\n        uint256 proposalAddress;\r\n        address delegator;\r\n        address beneficiary;\r\n        address token;\r\n        bool principal;\r\n        bool dlnRewards;\r\n        bool dlnGRewards;\r\n        bool delegateControl;\r\n    }\r\n\r\n    mapping(address => Backe) backes;\r\n    mapping(uint256 => Proposal) proposals;\r\n    address[] internal backholders;\r\n    uint256[] internal proposalsAddresses;\r\n\r\n    // ---------- STAKES ----------\r\n\r\n    /**\r\n     * @notice A method for a backholder to create a back.\r\n     * @param _back The size of the back to be created.\r\n     */\r\n    function createBack(\r\n        uint256 _back,\r\n        uint256 _proposalAddress,\r\n        address _delegator,\r\n        address _benefeciary,\r\n        GenericERC20 _token,\r\n        bool principal,\r\n        bool dlnRewards,\r\n        bool dlnGRewards,\r\n        bool delegateControl\r\n    ) public {\r\n        if (backes[_delegator].amount == 0) addBackholder(_delegator);\r\n        backes[_delegator] = Backe(\r\n            _back,\r\n            _proposalAddress,\r\n            _delegator,\r\n            _benefeciary,\r\n            _token,\r\n            principal,\r\n            dlnRewards,\r\n            dlnGRewards,\r\n            delegateControl\r\n        );\r\n\r\n        proposals[_proposalAddress] = Proposal(\r\n            _back,\r\n            _proposalAddress,\r\n            _delegator,\r\n            _benefeciary,\r\n            _token,\r\n            principal,\r\n            dlnRewards,\r\n            dlnGRewards,\r\n            delegateControl\r\n        );\r\n        backes[_delegator].amount = backes[_delegator].amount.add(_back);\r\n    }\r\n\r\n    /**\r\n     * @notice A method for a backholder to remove a back.\r\n     * @param _back The size of the back to be removed.\r\n     */\r\n    // function removeBack(uint256 _back, MintableToken _token) public {\r\n    function removeBack(uint256 _back, address _delegator) public {\r\n        backes[_delegator].amount = backes[_delegator].amount.sub(_back);\r\n        if (backes[_delegator].amount == 0) {\r\n            removeBackholder(_delegator);\r\n            removeProposal(backes[_delegator].proposalAddress);\r\n        }\r\n    }\r\n\r\n    /**\r\n     * @notice A method to retrieve the back for a backholder.\r\n     * @param _backholder The backholder to retrieve the back for.\r\n     * @return uint256 The amount of wei backd.\r\n     */\r\n    function backOf(address _backholder) public view returns (uint256) {\r\n        return backes[_backholder].amount;\r\n    }\r\n\r\n    /**\r\n     * @notice A method to the aggregated backs from all backholders.\r\n     * @return uint256 The aggregated backs from all backholders.\r\n     */\r\n    function totalBacks() public view returns (uint256) {\r\n        uint256 _totalBacks = 0;\r\n        for (uint256 s = 0; s < backholders.length; s += 1) {\r\n            _totalBacks = _totalBacks.add(backes[backholders[s]].amount);\r\n        }\r\n        return _totalBacks;\r\n    }\r\n\r\n    // ---------- STAKEHOLDERS ----------\r\n\r\n    /**\r\n     * @notice A method to check if an address is a backholder.\r\n     * @param _address The address to verify.\r\n     * @return bool, uint256 Whether the address is a backholder,\r\n     * and if so its position in the backholders array.\r\n     */\r\n    function isBackholder(address _address)\r\n        public\r\n        view\r\n        returns (bool, uint256)\r\n    {\r\n        for (uint256 s = 0; s < backholders.length; s += 1) {\r\n            if (\r\n                (_address == backholders[s] &&\r\n                    !backes[backholders[s]].delegateControl) ||\r\n                _address == backes[backholders[s]].beneficiary\r\n            ) return (true, s);\r\n        }\r\n        return (false, 0);\r\n    }\r\n\r\n    function isProposal(uint256 _proposalAddress)\r\n        public\r\n        view\r\n        returns (bool, uint256)\r\n    {\r\n        for (uint256 s = 0; s < proposalsAddresses.length; s += 1) {\r\n            if (_proposalAddress == proposalsAddresses[s]) return (true, s);\r\n        }\r\n        return (false, 0);\r\n    }\r\n\r\n    function getProposal(uint256 _proposalAddress)\r\n        public\r\n        view\r\n        returns (\r\n            uint256,\r\n            address,\r\n            address,\r\n            address,\r\n            bool,\r\n            bool,\r\n            bool\r\n        )\r\n    {\r\n        return (\r\n            proposals[_proposalAddress].amount,\r\n            proposals[_proposalAddress].delegator,\r\n            proposals[_proposalAddress].beneficiary,\r\n            proposals[_proposalAddress].token,\r\n            proposals[_proposalAddress].principal,\r\n            proposals[_proposalAddress].dlnRewards,\r\n            proposals[_proposalAddress].dlnGRewards\r\n        );\r\n    }\r\n\r\n    function getBenefeciary(address _address)\r\n        public\r\n        view\r\n        returns (\r\n            uint256,\r\n            address,\r\n            address,\r\n            address,\r\n            bool,\r\n            bool,\r\n            bool\r\n        )\r\n    {\r\n        return (\r\n            backes[_address].amount,\r\n            backes[_address].delegator,\r\n            backes[_address].beneficiary,\r\n            backes[_address].token,\r\n            backes[_address].principal,\r\n            backes[_address].dlnRewards,\r\n            backes[_address].dlnGRewards\r\n        );\r\n    }\r\n\r\n    function isDelegateControl(address _address) public view returns (bool) {\r\n        return (backes[_address].delegateControl);\r\n    }\r\n\r\n    function getProposalAddress(address _address)\r\n        public\r\n        view\r\n        returns (uint256)\r\n    {\r\n        return (backes[_address].proposalAddress);\r\n    }\r\n\r\n    /**\r\n     * @notice A method to add a backholder.\r\n     * @param _backholder The backholder to add.\r\n     */\r\n    function addBackholder(address _backholder) public {\r\n        (bool _isBackholder, ) = isBackholder(_backholder);\r\n        if (!_isBackholder) backholders.push(_backholder);\r\n    }\r\n\r\n    function addProposal(uint256 _proposal) public {\r\n        (bool _isProposal, ) = isProposal(_proposal);\r\n        if (!_isProposal) proposalsAddresses.push(_proposal);\r\n    }\r\n\r\n    /**\r\n     * @notice A method to remove a backholder.\r\n     * @param _backholder The backholder to remove.\r\n     */\r\n    function removeBackholder(address _backholder) public {\r\n        (bool _isBackholder, uint256 s) = isBackholder(_backholder);\r\n\r\n        if (_isBackholder) {\r\n            // backholders.pop();\r\n            delete backholders[s];\r\n            backholders[s] = backholders[backholders.length - 1];\r\n        }\r\n    }\r\n\r\n    function removeProposal(uint256 _proposalAddress) public {\r\n        (bool _isProposal, uint256 s) = isProposal(_proposalAddress);\r\n\r\n        if (_isProposal) {\r\n            delete proposalsAddresses[s];\r\n            proposalsAddresses[s] = proposalsAddresses[\r\n                proposalsAddresses.length - 1\r\n            ];\r\n        }\r\n    }\r\n}\r\n",
  "sourcePath": "D:/Ibrahim/github-projects/blockchain/nftvrepo/contracts/DelegateBackingERC20Token.sol",
  "compiler": {
    "name": "solc",
    "version": "0.4.26+commit.4563c3fc.Emscripten.clang"
  },
  "schemaVersion": "3.3.4",
  "updatedAt": "2021-03-03T13:38:52.382Z",
  "networkType": "ethereum",
  "devdoc": {
    "methods": {
      "addBackholder(address)": {
        "params": {
          "_backholder": "The backholder to add.\r"
        }
      },
      "backOf(address)": {
        "params": {
          "_backholder": "The backholder to retrieve the back for.\r"
        },
        "return": "uint256 The amount of wei backd.\r"
      },
      "createBack(uint256,uint256,address,address,address,bool,bool,bool,bool)": {
        "params": {
          "_back": "The size of the back to be created.\r"
        }
      },
      "isBackholder(address)": {
        "params": {
          "_address": "The address to verify.\r"
        },
        "return": "bool, uint256 Whether the address is a backholder,\r and if so its position in the backholders array.\r"
      },
      "removeBack(uint256,address)": {
        "params": {
          "_back": "The size of the back to be removed.\r"
        }
      },
      "removeBackholder(address)": {
        "params": {
          "_backholder": "The backholder to remove.\r"
        }
      },
      "renounceOwnership()": {
        "details": "Allows the current owner to relinquish control of the contract."
      },
      "totalBacks()": {
        "return": "uint256 The aggregated backs from all backholders.\r"
      },
      "transferOwnership(address)": {
        "details": "Allows the current owner to transfer control of the contract to a newOwner.",
        "params": {
          "_newOwner": "The address to transfer ownership to."
        }
      }
    }
  },
  "userdoc": {
    "methods": {
      "addBackholder(address)": {
        "notice": "A method to add a backholder.\r"
      },
      "backOf(address)": {
        "notice": "A method to retrieve the back for a backholder.\r"
      },
      "createBack(uint256,uint256,address,address,address,bool,bool,bool,bool)": {
        "notice": "A method for a backholder to create a back.\r"
      },
      "isBackholder(address)": {
        "notice": "A method to check if an address is a backholder.\r"
      },
      "removeBack(uint256,address)": {
        "notice": "A method for a backholder to remove a back.\r"
      },
      "removeBackholder(address)": {
        "notice": "A method to remove a backholder.\r"
      },
      "renounceOwnership()": {
        "notice": "Renouncing to ownership will leave the contract without an owner. It will not be possible to call the functions with the `onlyOwner` modifier anymore."
      },
      "totalBacks()": {
        "notice": "A method to the aggregated backs from all backholders.\r"
      }
    }
  }
}