{
  "contractName": "StakingERC20Token",
  "abi": [
    {
      "constant": false,
      "inputs": [],
      "name": "renounceOwnership",
      "outputs": [],
      "payable": false,
      "stateMutability": "nonpayable",
      "type": "function"
    },
    {
      "constant": true,
      "inputs": [],
      "name": "owner",
      "outputs": [
        {
          "name": "",
          "type": "address"
        }
      ],
      "payable": false,
      "stateMutability": "view",
      "type": "function"
    },
    {
      "constant": false,
      "inputs": [
        {
          "name": "_newOwner",
          "type": "address"
        }
      ],
      "name": "transferOwnership",
      "outputs": [],
      "payable": false,
      "stateMutability": "nonpayable",
      "type": "function"
    },
    {
      "inputs": [],
      "payable": false,
      "stateMutability": "nonpayable",
      "type": "constructor"
    },
    {
      "anonymous": false,
      "inputs": [
        {
          "indexed": true,
          "name": "previousOwner",
          "type": "address"
        }
      ],
      "name": "OwnershipRenounced",
      "type": "event"
    },
    {
      "anonymous": false,
      "inputs": [
        {
          "indexed": true,
          "name": "previousOwner",
          "type": "address"
        },
        {
          "indexed": true,
          "name": "newOwner",
          "type": "address"
        }
      ],
      "name": "OwnershipTransferred",
      "type": "event"
    },
    {
      "constant": false,
      "inputs": [
        {
          "name": "_stake",
          "type": "uint256"
        },
        {
          "name": "_address",
          "type": "address"
        },
        {
          "name": "_token",
          "type": "address"
        }
      ],
      "name": "createStake",
      "outputs": [],
      "payable": false,
      "stateMutability": "nonpayable",
      "type": "function"
    },
    {
      "constant": true,
      "inputs": [
        {
          "name": "_token",
          "type": "address"
        },
        {
          "name": "_address",
          "type": "address"
        }
      ],
      "name": "getTokenBalance",
      "outputs": [
        {
          "name": "",
          "type": "uint256"
        }
      ],
      "payable": false,
      "stateMutability": "view",
      "type": "function"
    },
    {
      "constant": true,
      "inputs": [],
      "name": "currentAddress",
      "outputs": [
        {
          "name": "",
          "type": "address"
        }
      ],
      "payable": false,
      "stateMutability": "view",
      "type": "function"
    },
    {
      "constant": false,
      "inputs": [
        {
          "name": "_stake",
          "type": "uint256"
        },
        {
          "name": "_address",
          "type": "address"
        },
        {
          "name": "_token",
          "type": "address"
        }
      ],
      "name": "removeStake",
      "outputs": [],
      "payable": false,
      "stateMutability": "nonpayable",
      "type": "function"
    },
    {
      "constant": true,
      "inputs": [
        {
          "name": "_stakeholder",
          "type": "address"
        },
        {
          "name": "_token",
          "type": "address"
        }
      ],
      "name": "stakeOf",
      "outputs": [
        {
          "name": "",
          "type": "uint256"
        }
      ],
      "payable": false,
      "stateMutability": "view",
      "type": "function"
    },
    {
      "constant": true,
      "inputs": [
        {
          "name": "_token",
          "type": "address"
        }
      ],
      "name": "totalStakes",
      "outputs": [
        {
          "name": "",
          "type": "uint256"
        }
      ],
      "payable": false,
      "stateMutability": "view",
      "type": "function"
    },
    {
      "constant": true,
      "inputs": [
        {
          "name": "_address",
          "type": "address"
        }
      ],
      "name": "isStakeholder",
      "outputs": [
        {
          "name": "",
          "type": "bool"
        },
        {
          "name": "",
          "type": "uint256"
        }
      ],
      "payable": false,
      "stateMutability": "view",
      "type": "function"
    },
    {
      "constant": false,
      "inputs": [
        {
          "name": "_stakeholder",
          "type": "address"
        }
      ],
      "name": "addStakeholder",
      "outputs": [],
      "payable": false,
      "stateMutability": "nonpayable",
      "type": "function"
    },
    {
      "constant": false,
      "inputs": [
        {
          "name": "_stakeholder",
          "type": "address"
        }
      ],
      "name": "removeStakeholder",
      "outputs": [],
      "payable": false,
      "stateMutability": "nonpayable",
      "type": "function"
    },
    {
      "constant": true,
      "inputs": [
        {
          "name": "_stakeholder",
          "type": "address"
        }
      ],
      "name": "rewardOf",
      "outputs": [
        {
          "name": "",
          "type": "uint256"
        }
      ],
      "payable": false,
      "stateMutability": "view",
      "type": "function"
    },
    {
      "constant": true,
      "inputs": [],
      "name": "totalRewards",
      "outputs": [
        {
          "name": "",
          "type": "uint256"
        }
      ],
      "payable": false,
      "stateMutability": "view",
      "type": "function"
    },
    {
      "constant": true,
      "inputs": [
        {
          "name": "_stakeholder",
          "type": "address"
        },
        {
          "name": "_token",
          "type": "address"
        }
      ],
      "name": "calculateReward",
      "outputs": [
        {
          "name": "",
          "type": "uint256"
        }
      ],
      "payable": false,
      "stateMutability": "view",
      "type": "function"
    },
    {
      "constant": false,
      "inputs": [
        {
          "name": "_token",
          "type": "address"
        }
      ],
      "name": "distributeRewards",
      "outputs": [],
      "payable": false,
      "stateMutability": "nonpayable",
      "type": "function"
    },
    {
      "constant": false,
      "inputs": [
        {
          "name": "_token",
          "type": "address"
        }
      ],
      "name": "withdrawReward",
      "outputs": [],
      "payable": false,
      "stateMutability": "nonpayable",
      "type": "function"
    }
  ],
  "bytecode": "0x608060405234801561001057600080fd5b50336000806101000a81548173ffffffffffffffffffffffffffffffffffffffff021916908373ffffffffffffffffffffffffffffffffffffffff160217905550611540806100606000396000f3006080604052600436106100f1576000357c0100000000000000000000000000000000000000000000000000000000900463ffffffff1680630e15561a146100f65780631d62ebd9146101215780631de9d9b61461017857806356bcae7a146101bb578063715018a6146102285780637ca44fcf1461023f57806381bf4718146102b65780638da5cb5b1461030d578063a1d770eb14610364578063b86e321c146103d1578063bcb0c2d714610414578063c489744b14610457578063ce4cb876146104ce578063df349ed514610545578063e5c42fd11461059c578063ef037b90146105df578063f2fde38b14610641575b600080fd5b34801561010257600080fd5b5061010b610684565b6040518082815260200191505060405180910390f35b34801561012d57600080fd5b50610162600480360381019080803573ffffffffffffffffffffffffffffffffffffffff16906020019092919050505061073e565b6040518082815260200191505060405180910390f35b34801561018457600080fd5b506101b9600480360381019080803573ffffffffffffffffffffffffffffffffffffffff169060200190929190505050610787565b005b3480156101c757600080fd5b5061022660048036038101908080359060200190929190803573ffffffffffffffffffffffffffffffffffffffff169060200190929190803573ffffffffffffffffffffffffffffffffffffffff16906020019092919050505061088b565b005b34801561023457600080fd5b5061023d610a2e565b005b34801561024b57600080fd5b506102a0600480360381019080803573ffffffffffffffffffffffffffffffffffffffff169060200190929190803573ffffffffffffffffffffffffffffffffffffffff169060200190929190505050610b30565b6040518082815260200191505060405180910390f35b3480156102c257600080fd5b506102cb610bc3565b604051808273ffffffffffffffffffffffffffffffffffffffff1673ffffffffffffffffffffffffffffffffffffffff16815260200191505060405180910390f35b34801561031957600080fd5b50610322610bcb565b604051808273ffffffffffffffffffffffffffffffffffffffff1673ffffffffffffffffffffffffffffffffffffffff16815260200191505060405180910390f35b34801561037057600080fd5b506103cf60048036038101908080359060200190929190803573ffffffffffffffffffffffffffffffffffffffff169060200190929190803573ffffffffffffffffffffffffffffffffffffffff169060200190929190505050610bf0565b005b3480156103dd57600080fd5b50610412600480360381019080803573ffffffffffffffffffffffffffffffffffffffff169060200190929190505050610d93565b005b34801561042057600080fd5b50610455600480360381019080803573ffffffffffffffffffffffffffffffffffffffff169060200190929190505050610eff565b005b34801561046357600080fd5b506104b8600480360381019080803573ffffffffffffffffffffffffffffffffffffffff169060200190929190803573ffffffffffffffffffffffffffffffffffffffff169060200190929190505050610fee565b6040518082815260200191505060405180910390f35b3480156104da57600080fd5b5061052f600480360381019080803573ffffffffffffffffffffffffffffffffffffffff169060200190929190803573ffffffffffffffffffffffffffffffffffffffff1690602001909291905050506110d3565b6040518082815260200191505060405180910390f35b34801561055157600080fd5b50610586600480360381019080803573ffffffffffffffffffffffffffffffffffffffff16906020019092919050505061115a565b6040518082815260200191505060405180910390f35b3480156105a857600080fd5b506105dd600480360381019080803573ffffffffffffffffffffffffffffffffffffffff169060200190929190505050611253565b005b3480156105eb57600080fd5b50610620600480360381019080803573ffffffffffffffffffffffffffffffffffffffff1690602001909291905050506112d3565b60405180831515151581526020018281526020019250505060405180910390f35b34801561064d57600080fd5b50610682600480360381019080803573ffffffffffffffffffffffffffffffffffffffff16906020019092919050505061137e565b005b6000806000809150600090505b60018054905081101561073657610729600360006001848154811015156106b457fe5b9060005260206000200160009054906101000a900473ffffffffffffffffffffffffffffffffffffffff1673ffffffffffffffffffffffffffffffffffffffff1673ffffffffffffffffffffffffffffffffffffffff16815260200190815260200160002054836113e590919063ffffffff16565b9150600181019050610691565b819250505090565b6000600360008373ffffffffffffffffffffffffffffffffffffffff1673ffffffffffffffffffffffffffffffffffffffff168152602001908152602001600020549050919050565b60008060008092505b600180549050831015610885576001838154811015156107ac57fe5b9060005260206000200160009054906101000a900473ffffffffffffffffffffffffffffffffffffffff1691506107e38285610b30565b905061083781600360008573ffffffffffffffffffffffffffffffffffffffff1673ffffffffffffffffffffffffffffffffffffffff168152602001908152602001600020546113e590919063ffffffff16565b600360008473ffffffffffffffffffffffffffffffffffffffff1673ffffffffffffffffffffffffffffffffffffffff16815260200190815260200160002081905550600183019250610790565b50505050565b6000600260008473ffffffffffffffffffffffffffffffffffffffff1673ffffffffffffffffffffffffffffffffffffffff16815260200190815260200160002060008373ffffffffffffffffffffffffffffffffffffffff1673ffffffffffffffffffffffffffffffffffffffff16815260200190815260200160002054141561091a5761091982611253565b5b6109a983600260008573ffffffffffffffffffffffffffffffffffffffff1673ffffffffffffffffffffffffffffffffffffffff16815260200190815260200160002060008473ffffffffffffffffffffffffffffffffffffffff1673ffffffffffffffffffffffffffffffffffffffff168152602001908152602001600020546113e590919063ffffffff16565b600260008473ffffffffffffffffffffffffffffffffffffffff1673ffffffffffffffffffffffffffffffffffffffff16815260200190815260200160002060008373ffffffffffffffffffffffffffffffffffffffff1673ffffffffffffffffffffffffffffffffffffffff16815260200190815260200160002081905550505050565b6000809054906101000a900473ffffffffffffffffffffffffffffffffffffffff1673ffffffffffffffffffffffffffffffffffffffff163373ffffffffffffffffffffffffffffffffffffffff16141515610a8957600080fd5b6000809054906101000a900473ffffffffffffffffffffffffffffffffffffffff1673ffffffffffffffffffffffffffffffffffffffff167ff8df31144d9c2f0f6b59d69b8b98abd5459d07f2742c4df920b25aae33c6482060405160405180910390a260008060006101000a81548173ffffffffffffffffffffffffffffffffffffffff021916908373ffffffffffffffffffffffffffffffffffffffff160217905550565b60006064600260008573ffffffffffffffffffffffffffffffffffffffff1673ffffffffffffffffffffffffffffffffffffffff16815260200190815260200160002060008473ffffffffffffffffffffffffffffffffffffffff1673ffffffffffffffffffffffffffffffffffffffff16815260200190815260200160002054811515610bba57fe5b04905092915050565b600030905090565b6000809054906101000a900473ffffffffffffffffffffffffffffffffffffffff1681565b610c7f83600260008573ffffffffffffffffffffffffffffffffffffffff1673ffffffffffffffffffffffffffffffffffffffff16815260200190815260200160002060008473ffffffffffffffffffffffffffffffffffffffff1673ffffffffffffffffffffffffffffffffffffffff1681526020019081526020016000205461140190919063ffffffff16565b600260008473ffffffffffffffffffffffffffffffffffffffff1673ffffffffffffffffffffffffffffffffffffffff16815260200190815260200160002060008373ffffffffffffffffffffffffffffffffffffffff1673ffffffffffffffffffffffffffffffffffffffff168152602001908152602001600020819055506000600260008473ffffffffffffffffffffffffffffffffffffffff1673ffffffffffffffffffffffffffffffffffffffff16815260200190815260200160002060008373ffffffffffffffffffffffffffffffffffffffff1673ffffffffffffffffffffffffffffffffffffffff168152602001908152602001600020541415610d8e57610d8d82610eff565b5b505050565b6000600360003373ffffffffffffffffffffffffffffffffffffffff1673ffffffffffffffffffffffffffffffffffffffff1681526020019081526020016000205490506000600360003373ffffffffffffffffffffffffffffffffffffffff1673ffffffffffffffffffffffffffffffffffffffff168152602001908152602001600020819055508173ffffffffffffffffffffffffffffffffffffffff166340c10f1933836040518363ffffffff167c0100000000000000000000000000000000000000000000000000000000028152600401808373ffffffffffffffffffffffffffffffffffffffff1673ffffffffffffffffffffffffffffffffffffffff16815260200182815260200192505050602060405180830381600087803b158015610ebf57600080fd5b505af1158015610ed3573d6000803e3d6000fd5b505050506040513d6020811015610ee957600080fd5b8101908080519060200190929190505050505050565b600080610f0b836112d3565b915091508115610fe957600181815481101515610f2457fe5b9060005260206000200160006101000a81549073ffffffffffffffffffffffffffffffffffffffff0219169055600180808054905003815481101515610f6657fe5b9060005260206000200160009054906101000a900473ffffffffffffffffffffffffffffffffffffffff16600182815481101515610fa057fe5b9060005260206000200160006101000a81548173ffffffffffffffffffffffffffffffffffffffff021916908373ffffffffffffffffffffffffffffffffffffffff1602179055505b505050565b6000808390508073ffffffffffffffffffffffffffffffffffffffff166370a08231846040518263ffffffff167c0100000000000000000000000000000000000000000000000000000000028152600401808273ffffffffffffffffffffffffffffffffffffffff1673ffffffffffffffffffffffffffffffffffffffff168152602001915050602060405180830381600087803b15801561108f57600080fd5b505af11580156110a3573d6000803e3d6000fd5b505050506040513d60208110156110b957600080fd5b810190808051906020019092919050505091505092915050565b6000600260008473ffffffffffffffffffffffffffffffffffffffff1673ffffffffffffffffffffffffffffffffffffffff16815260200190815260200160002060008373ffffffffffffffffffffffffffffffffffffffff1673ffffffffffffffffffffffffffffffffffffffff16815260200190815260200160002054905092915050565b6000806000809150600090505b6001805490508110156112495761123c6002600060018481548110151561118a57fe5b9060005260206000200160009054906101000a900473ffffffffffffffffffffffffffffffffffffffff1673ffffffffffffffffffffffffffffffffffffffff1673ffffffffffffffffffffffffffffffffffffffff16815260200190815260200160002060008673ffffffffffffffffffffffffffffffffffffffff1673ffffffffffffffffffffffffffffffffffffffff16815260200190815260200160002054836113e590919063ffffffff16565b9150600181019050611167565b8192505050919050565b600061125e826112d3565b5090508015156112cf5760018290806001815401808255809150509060018203906000526020600020016000909192909190916101000a81548173ffffffffffffffffffffffffffffffffffffffff021916908373ffffffffffffffffffffffffffffffffffffffff160217905550505b5050565b60008060008090505b60018054905081101561136d576001818154811015156112f857fe5b9060005260206000200160009054906101000a900473ffffffffffffffffffffffffffffffffffffffff1673ffffffffffffffffffffffffffffffffffffffff168473ffffffffffffffffffffffffffffffffffffffff1614156113625760018192509250611378565b6001810190506112dc565b600080809050925092505b50915091565b6000809054906101000a900473ffffffffffffffffffffffffffffffffffffffff1673ffffffffffffffffffffffffffffffffffffffff163373ffffffffffffffffffffffffffffffffffffffff161415156113d957600080fd5b6113e28161141a565b50565b600081830190508281101515156113f857fe5b80905092915050565b600082821115151561140f57fe5b818303905092915050565b600073ffffffffffffffffffffffffffffffffffffffff168173ffffffffffffffffffffffffffffffffffffffff161415151561145657600080fd5b8073ffffffffffffffffffffffffffffffffffffffff166000809054906101000a900473ffffffffffffffffffffffffffffffffffffffff1673ffffffffffffffffffffffffffffffffffffffff167f8be0079c531659141344cd1fd0a4f28419497f9722a3daafe3b4186f6b6457e060405160405180910390a3806000806101000a81548173ffffffffffffffffffffffffffffffffffffffff021916908373ffffffffffffffffffffffffffffffffffffffff160217905550505600a165627a7a723058200676f6ce34acb9acdf151db33e386793769422ff3e54f64dc4ce639ce171feec0029",
  "source": "pragma solidity ^0.4.23;\n\nimport \"../node_modules/zeppelin-solidity/contracts/ownership/Ownable.sol\";\n// import \"../node_modules/zeppelin-solidity/contracts/token/ERC20/BurnableToken.sol\";\n// import \"../node_modules/zeppelin-solidity/contracts/token/ERC20/MintableToken.sol\";\nimport \"../node_modules/zeppelin-solidity/contracts/math/SafeMath.sol\";\n\nimport \"../node_modules/zeppelin-solidity/contracts/token/ERC20/DetailedERC20.sol\";\nimport \"./GenericERC20.sol\";\n\ncontract StakingERC20Token is Ownable {\n    using SafeMath for uint256;\n\n    /**\n     * @notice We usually require to know who are all the stakeholders.\n     */\n    address[] internal stakeholders;\n\n    /**\n     * @notice The stakes for each stakeholder.\n     */\n    // mapping(address => uint256) internal stakes;\n    mapping(address => mapping(address => uint256)) internal stakes;\n\n    /**\n     * @notice The accumulated rewards for each stakeholder.\n     */\n    mapping(address => uint256) internal rewards;\n\n    // DetailedERC20 token;\n\n    // /**\n    //  * @notice The constructor for the Staking Token.\n    //  * @param _owner The address to receive all tokens on construction.\n    //  * @param _supply The amount of tokens to mint on construction.\n    //  */\n    constructor() public {\n        // owner = msg.sender;\n    }\n\n    // constructor() public {\n    //     // token = _token;\n    // }\n\n    // ---------- STAKES ----------\n\n    /**\n     * @notice A method for a stakeholder to create a stake.\n     * @param _stake The size of the stake to be created.\n     */\n    // function createStake(uint256 _stake, GenericERC20 _token) public {\n    function createStake(\n        uint256 _stake,\n        address _address,\n        GenericERC20 _token\n    ) public {\n        //\n        // BurnableToken token = BurnableToken(_token);\n        // _token.burn(_stake);\n        if (stakes[_address][_token] == 0) addStakeholder(_address);\n        stakes[_address][_token] = stakes[_address][_token].add(_stake);\n    }\n\n    function getTokenBalance(address _token, address _address)\n        public\n        view\n        returns (uint256)\n    {\n        GenericERC20 token = GenericERC20(_token);\n        return token.balanceOf(_address);\n    }\n\n    function currentAddress() public view returns (address) {\n        return address(this);\n    }\n\n    /**\n     * @notice A method for a stakeholder to remove a stake.\n     * @param _stake The size of the stake to be removed.\n     */\n    // function removeStake(uint256 _stake, MintableToken _token) public {\n    function removeStake(\n        uint256 _stake,\n        address _address,\n        GenericERC20 _token\n    ) public {\n        stakes[_address][_token] = stakes[_address][_token].sub(_stake);\n        if (stakes[_address][_token] == 0) removeStakeholder(_address);\n\n        // _token.mint(msg.sender, _stake);\n    }\n\n    /**\n     * @notice A method to retrieve the stake for a stakeholder.\n     * @param _stakeholder The stakeholder to retrieve the stake for.\n     * @return uint256 The amount of wei staked.\n     */\n    function stakeOf(address _stakeholder, GenericERC20 _token)\n        public\n        view\n        returns (uint256)\n    {\n        return stakes[_stakeholder][_token];\n    }\n\n    /**\n     * @notice A method to the aggregated stakes from all stakeholders.\n     * @return uint256 The aggregated stakes from all stakeholders.\n     */\n    function totalStakes(GenericERC20 _token) public view returns (uint256) {\n        uint256 _totalStakes = 0;\n        for (uint256 s = 0; s < stakeholders.length; s += 1) {\n            _totalStakes = _totalStakes.add(stakes[stakeholders[s]][_token]);\n        }\n        return _totalStakes;\n    }\n\n    // ---------- STAKEHOLDERS ----------\n\n    /**\n     * @notice A method to check if an address is a stakeholder.\n     * @param _address The address to verify.\n     * @return bool, uint256 Whether the address is a stakeholder,\n     * and if so its position in the stakeholders array.\n     */\n    function isStakeholder(address _address)\n        public\n        view\n        returns (bool, uint256)\n    {\n        for (uint256 s = 0; s < stakeholders.length; s += 1) {\n            if (_address == stakeholders[s]) return (true, s);\n        }\n        return (false, 0);\n    }\n\n    /**\n     * @notice A method to add a stakeholder.\n     * @param _stakeholder The stakeholder to add.\n     */\n    function addStakeholder(address _stakeholder) public {\n        (bool _isStakeholder, ) = isStakeholder(_stakeholder);\n        if (!_isStakeholder) stakeholders.push(_stakeholder);\n    }\n\n    /**\n     * @notice A method to remove a stakeholder.\n     * @param _stakeholder The stakeholder to remove.\n     */\n    function removeStakeholder(address _stakeholder) public {\n        (bool _isStakeholder, uint256 s) = isStakeholder(_stakeholder);\n        if (_isStakeholder) {\n            // stakeholders.pop();\n            delete stakeholders[s];\n            stakeholders[s] = stakeholders[stakeholders.length - 1];\n        }\n    }\n\n    // ---------- REWARDS ----------\n\n    /**\n     * @notice A method to allow a stakeholder to check his rewards.\n     * @param _stakeholder The stakeholder to check rewards for.\n     */\n    function rewardOf(address _stakeholder) public view returns (uint256) {\n        return rewards[_stakeholder];\n    }\n\n    /**\n     * @notice A method to the aggregated rewards from all stakeholders.\n     * @return uint256 The aggregated rewards from all stakeholders.\n     */\n    function totalRewards() public view returns (uint256) {\n        uint256 _totalRewards = 0;\n        for (uint256 s = 0; s < stakeholders.length; s += 1) {\n            _totalRewards = _totalRewards.add(rewards[stakeholders[s]]);\n        }\n        return _totalRewards;\n    }\n\n    /**\n     * @notice A simple method that calculates the rewards for each stakeholder.\n     * @param _stakeholder The stakeholder to calculate rewards for.\n     */\n    function calculateReward(address _stakeholder, GenericERC20 _token)\n        public\n        view\n        returns (uint256)\n    {\n        return stakes[_stakeholder][_token] / 100;\n    }\n\n    /**\n     * @notice A method to distribute rewards to all stakeholders.\n     */\n    // function distributeRewards() public onlyOwner {\n    function distributeRewards(GenericERC20 _token) public {\n        for (uint256 s = 0; s < stakeholders.length; s += 1) {\n            address stakeholder = stakeholders[s];\n            uint256 reward = calculateReward(stakeholder, _token);\n            rewards[stakeholder] = rewards[stakeholder].add(reward);\n        }\n    }\n\n    /**\n     * @notice A method to allow a stakeholder to withdraw his rewards.\n     */\n    function withdrawReward(MintableToken _token) public {\n        uint256 reward = rewards[msg.sender];\n        rewards[msg.sender] = 0;\n        _token.mint(msg.sender, reward);\n    }\n}\n",
  "sourcePath": "/Users/ebra/code/blockchain/untitled folder/nftvrepo/contracts/StakingERC20Token.sol",
  "compiler": {
    "name": "solc",
    "version": "0.4.26+commit.4563c3fc.Emscripten.clang"
  },
  "schemaVersion": "3.3.1",
  "updatedAt": "2020-12-08T16:16:12.922Z",
  "networkType": "ethereum",
  "devdoc": {
    "methods": {
      "addStakeholder(address)": {
        "params": {
          "_stakeholder": "The stakeholder to add."
        }
      },
      "calculateReward(address,address)": {
        "params": {
          "_stakeholder": "The stakeholder to calculate rewards for."
        }
      },
      "createStake(uint256,address,address)": {
        "params": {
          "_stake": "The size of the stake to be created."
        }
      },
      "isStakeholder(address)": {
        "params": {
          "_address": "The address to verify."
        },
        "return": "bool, uint256 Whether the address is a stakeholder, and if so its position in the stakeholders array."
      },
      "removeStake(uint256,address,address)": {
        "params": {
          "_stake": "The size of the stake to be removed."
        }
      },
      "removeStakeholder(address)": {
        "params": {
          "_stakeholder": "The stakeholder to remove."
        }
      },
      "renounceOwnership()": {
        "details": "Allows the current owner to relinquish control of the contract."
      },
      "rewardOf(address)": {
        "params": {
          "_stakeholder": "The stakeholder to check rewards for."
        }
      },
      "stakeOf(address,address)": {
        "params": {
          "_stakeholder": "The stakeholder to retrieve the stake for."
        },
        "return": "uint256 The amount of wei staked."
      },
      "totalRewards()": {
        "return": "uint256 The aggregated rewards from all stakeholders."
      },
      "totalStakes(address)": {
        "return": "uint256 The aggregated stakes from all stakeholders."
      },
      "transferOwnership(address)": {
        "details": "Allows the current owner to transfer control of the contract to a newOwner.",
        "params": {
          "_newOwner": "The address to transfer ownership to."
        }
      }
    }
  },
  "userdoc": {
    "methods": {
      "addStakeholder(address)": {
        "notice": "A method to add a stakeholder."
      },
      "calculateReward(address,address)": {
        "notice": "A simple method that calculates the rewards for each stakeholder."
      },
      "createStake(uint256,address,address)": {
        "notice": "A method for a stakeholder to create a stake."
      },
      "distributeRewards(address)": {
        "notice": "A method to distribute rewards to all stakeholders."
      },
      "isStakeholder(address)": {
        "notice": "A method to check if an address is a stakeholder."
      },
      "removeStake(uint256,address,address)": {
        "notice": "A method for a stakeholder to remove a stake."
      },
      "removeStakeholder(address)": {
        "notice": "A method to remove a stakeholder."
      },
      "renounceOwnership()": {
        "notice": "Renouncing to ownership will leave the contract without an owner. It will not be possible to call the functions with the `onlyOwner` modifier anymore."
      },
      "rewardOf(address)": {
        "notice": "A method to allow a stakeholder to check his rewards."
      },
      "stakeOf(address,address)": {
        "notice": "A method to retrieve the stake for a stakeholder."
      },
      "totalRewards()": {
        "notice": "A method to the aggregated rewards from all stakeholders."
      },
      "totalStakes(address)": {
        "notice": "A method to the aggregated stakes from all stakeholders."
      },
      "withdrawReward(address)": {
        "notice": "A method to allow a stakeholder to withdraw his rewards."
      }
    }
  }
}